:020000041000EA
:1000000000B5324B212058609868022188439860DF
:10001000D860186158612E4B002199600221596106
:100020000121F02299502B49196001219960352056
:1000300000F044F80222904214D00621196600F024
:1000400034F8196E01211966002018661A6600F04E
:100050002CF8196E196E196E052000F02FF8012189
:100060000842F9D1002199601B49196000215960AB
:100070001A491B48016001219960EB211966A021F2
:10008000196600F012F800219960164914480160C1
:100090000121996001BC002800D000471248134993
:1000A000086003C880F30888084703B5996A0420EC
:1000B0000142FBD001200142F8D103BD02B5186610
:1000C0001866FFF7F2FF186E186E02BD00000240BE
:1000D000000000180000070000035F00212200005C
:1000E000F4000018222000A00001001008ED00E03C
:1000F00000000000000000000000000074B24E7A12
:1001000000200420F7010010C3010010C5010010F9
:10011000C1010010C1010010C1010010C101001097
:10012000C1010010C1010010C1010010C701001081
:10013000C1010010C1010010C9010010CB01001065
:10014000CD010010CD010010CD010010CD01001037
:10015000CD010010CD010010CD010010CD01001027
:10016000CD010010CD010010CD010010CD01001017
:10017000CD010010CD010010CD010010CD01001007
:10018000CD010010CD010010CD010010CD010010F7
:10019000CD010010CD010010CD010010CD010010E7
:1001A000CD010010CD010010CD010010CD010010D7
:1001B000CD010010CD010010CD010010CD010010C7
:1001C00000BE00BE00BE00BE00BE00BE00F04BF888
:1001D000103800BEF2EB88717C670110A067011037
:1001E0003402001090A31AE700202149086006C8D5
:1001F00081F3088810471F48006800282FD10DA4FC
:100200000ECC002902D000F012F8F9E71A491B4A77
:10021000002000E001C19142FCD1194988471949E9
:1002200088471949884700BEFDE701C901C29A42C3
:10023000FBD37047A0670110C000002084A00020FD
:10024000640702100000042000000420640702106C
:1002500000100420001004200000000070470B482C
:1002600006F0C4FA0047EFF30580C0B27047000003
:1002700008ED00E0000000D088A00020C8B30020F6
:10028000C14B0010B9150010E54C00105756000086
:1002900006005250ABB36053A85C011006005250E8
:1002A000861C0302B85C0110060052505422A29D25
:1002B000C05C011005005250DE65F468640702104E
:1002C000F8B5C04610B5064C2378002B07D1054B76
:1002D000002B02D0044800E000BF0123237010BDB2
:1002E00010A4002000000000B04F0110044B10B516
:1002F000002B03D00349044800E000BF10BDC046F6
:100300000000000014A40020B04F011010B5041E1E
:1003100005D011F041FF210006F09AFA0C002000F0
:1003200010BDC04670B50400884206DA0D1A11F0FF
:1003300033FF290006F08CFA6418200070BDC04617
:1003400010B51C00431A0298511A001B584306F0BE
:100350007FFA001910BDC046F8B5424C2500913512
:10036000FF3511F0FFFE01C4AC42FAD104F03CF9B4
:1003700001243D4B18603D4808F0A0F93C4B3D4836
:10038000197908F03DFA3C4D286803F04BF93B4ED3
:10039000306803F047F922002B68D0259A402D06DB
:1003A000AA6222003368364F9A403868AA6203F086
:1003B00039F9344E306803F035F922003B68324F8A
:1003C0009A406A622200336838689A406A6203F091
:1003D00029F92E4E306803F025F923003868326879
:1003E0008340AB62230093400021AB62002203F004
:1003F00001F900210022306803F0FCF8244F38682E
:1004000003F010F9234E306803F00CF922003B682A
:10041000214F9A406A622200336838689A406A62C3
:1004200003F000F91D4E306803F0FCF822003B6831
:1004300028209A4033686A629C406C6207F0D8FFBB
:1004400000230370C360036143618361C36103627E
:100450004362134B1860032003F0E4F808236B6237
:10046000F8BDC04690AF002020950020B04F01108D
:1004700058060020DC4F011094050020980500204C
:1004800004950020089500209C050020A005002070
:10049000A4050020A80500200C9500201095002040
:1004A000D8AE0020F0B5DE4657464E464546E0B58C
:1004B000002085B011F020F8002867D10421884879
:1004C000FF3111F027F8050011F05AF8002401005F
:1004D000844808F095F9280011F046F80A22002116
:1004E00001A8009407F078FF0E226946280011F059
:1004F00037F801007C4808F083F96B4669465C7365
:100500007A4808F07DF97A4C7A48616A08F078F9FF
:10051000616A684612F082F80100774808F070F9C5
:100520006846616A12F07AF8002853D1280011F069
:1005300009F811F01DF8714808F062F9704D616812
:10054000280008F05DF96F4B6168A26819606E4B76
:100550006E4F1A609B46E2686D4B6E4E1A609A466B
:1005600022696D4B1A60994662696C4B98461A6015
:10057000A3693B60E36933602378002B0AD105B09F
:10058000F0BCBB46B246A946A046F0BD012010F023
:10059000B3FF93E7280008F033F95B462800196899
:1005A00008F02EF953462800196808F029F94B463F
:1005B0002800196808F024F943462800196808F053
:1005C0001FF93968280008F01BF92800316808F085
:1005D00017F9D4E7524808F071F801232800237076
:1005E00010F0C2FF666A300012F076F831000200A7
:1005F000280010F0B1FF01220021280010F0BCFFFC
:10060000606A10F0C1FF0700606A0E0010F0BCFFC6
:1006100002000B00434808F0F3F8E82338003100EB
:10062000414A06F063F902238046606031003800D9
:100630003E4A06F05BF96422002306F057F90023D6
:10064000A260380031003A4A06F050F964220023D3
:1006500006F04CF90023E26038003100354A06F01C
:1006600045F96422002306F041F900232261380095
:100670003100314A06F03AF96422002306F036F9D7
:100680000023626138006422310006F02FF96422F1
:10069000002306F02BF93800A26131006422002308
:1006A00006F024F941462548E26108F0A9F8A1685E
:1006B000234808F0A5F8E168224808F0A1F821696C
:1006C000214808F09DF86169204808F099F8A1696F
:1006D0001F4808F095F8E1691E4808F091F825E7F1
:1006E000F04F011004500110145001102850011057
:1006F000B40500203C50011050500110145101105D
:100700002851011004AA002000AA0020F8A9002006
:10071000FCA900200CAA002008AA0020F4A90020AF
:10072000645001107C5001100010A5D400E40B545B
:1007300000E1F50540420F00102700009C50011019
:10074000B0500110C0500110D0500110E050011005
:10075000F050011004510110F0B5DE4645465746F1
:100760004E46B34BE0B59846186897B002F052FE7B
:100770004346186802F030FEAE4B9B461B78002BB8
:1007800000D0B4E004AB99460DAE4346186802F0C1
:10079000C3FE43461B68D969A74B19609A46A74B0D
:1007A0001B685A1C01D052461360A54808F028F86F
:1007B00043461968A34D8B69A34C2B600B6AA34A6F
:1007C00023604B6A1360A24B1B78002B00D0E5E03E
:1007D000CB680A699F48496908F012F89B4B2A6860
:1007E00021681B689C4808F00BF843461A681723D9
:1007F00051699A485B1A58433B231169591A8C4630
:100800006746974979434018D168591A4A01521AE4
:100810009300944A5B189446DB00934AC3186344E0
:10082000136000212422484607F0D6FD242200212F
:10083000300007F0D1FD4A4678235361773BD360FF
:10084000484611F079FA81468846804B30001B6893
:10085000643373612368013B33612B68F36011F0EB
:100860006BFA4A46434610F095FE06F01DFB7F49A1
:10087000060005F0EDFF040001007D4807F0C0FF11
:100880007C4D7D48295D07F0BBFF7C4B295D7C4A90
:100890001B681160002B01DB19001360794807F019
:1008A000AFFF794B9E4200DABEE000230021EA5CF4
:1008B00001335042424189189C42F8DA0324CB1C90
:1008C0001C40724807F09CFF714B724A1B68146011
:1008D000002B01DB1C00136021006F4807F090FF24
:1008E00017B0F0BCBB46B246A946A046F0BD04AB6B
:1008F00099466A4B4A46190031C931C231C931C2E1
:1009000009680DAE116032001C3313CB13C213CB38
:1009100013C2D02703CB03C20BAB4C469A463F060B
:1009200020CC280002F07EFE0123AB407B627B617D
:10093000A245F5D1D02715AB34009A463F0620CC0E
:10094000280002F06FFE0123AB407B627B61A24571
:10095000F5D15348534B0068534A544912681B68F9
:10096000096803905248006802905248006801905C
:100970005148006800904046006802F067FD4F480B
:1009800007F09CFE5B464E4C5968200007F038FF8C
:100990005B462000996807F033FFF6E6002010F070
:1009A000ABFD04214748FF3110F0B4FD00230422C1
:1009B00031000D93070010F0D3FDFA220D9BD201F8
:1009C000934201D201330D93380010F0CDFD042283
:1009D0003100380010F0C0FD01220021380010F075
:1009E000CBFD380010F0AEFD10F0C2FD5A460D9B55
:1009F0001E211F001362180005F02AFF5246BC4654
:100A00001268296062441000072105F021FF534657
:100A1000380019601E2105F01BFF23689C464346E1
:100A2000604419682060D3E60324002149E7C046EA
:100A3000D8AE0020B40500208C05002024950020AD
:100A40006C51011028950020880500209005002099
:100A5000C1B30020885101109851011080EE36007A
:100A600060EA0000204E0000CCAE00208051010062
:100A7000AC51011058060020385101101895002083
:100A80003CAA0020C851011081AEFEFFD4510110D4
:100A90001C95002038AA0020E8510110585401107C
:100AA0000CAA0020FCA9002000AA002004AA002013
:100AB000F8A90020F4A9002008AA00205C51011028
:100AC000285101107C510110F0B5C64600B5D6483A
:100AD00082B007F0F3FD0A2007F0A0FDD34807F02D
:100AE000EDFD64210020FFF71DFCD14B05001B68C4
:100AF000072B36D8CF4A9B00D3589F46CE4807F0E5
:100B0000DDFDCE4CCE48216807F07AFE9E204000E5
:100B100007F06EFC0700CB4E236832680121009578
:100B200001F054F9C84B98461F602368042B00D18C
:100B300051E19E20400007F05BFC236832680221EF
:100B40000095070001F042F94346C04D18682F6038
:100B500001F086F92368042B00D15FE1286801F0D9
:100B60007FF902B080BCB846F0BDB94807F0A6FDD9
:100B70008B20800007F03CFC040002F06FF98B2012
:100B8000B44F80003C6007F033FC040002F066F9CB
:100B9000B14DB24B2C601A68A84CB14BA94E1968E4
:100BA000236838680093336802F090F92468AD4AEE
:100BB000AD493368126809682868009402F086F924
:100BC000CFE7AA4807F07AFDA94807F011FC040016
:100BD00001F0F8FFA74EA648346007F009FC0400B6
:100BE00001F0F0FF9D4BA44D1A689D4B30681968C9
:100BF00004232C600093033B02F060F88F4C914B70
:100C00002468984A98491B68126809682868009403
:100C100002F054F8A5E7994807F050FDA8204000DD
:100C200007F0E6FB0700854C864E236832680121F9
:100C3000009501F041FA924B98461F602368042BFF
:100C400000D1E6E0A820400007F0D2FB236832681C
:100C500002210095070001F02FFA4346894D1868DC
:100C60002F6001F05FFA2368042B00D1CCE02868E4
:100C700001F058FA75E7844807F020FD9E204000F7
:100C800007F0B6FB07006D4C6E4E236832680121F9
:100C9000009501F027FC7D4B98461F602368042BCC
:100CA00000D1ACE09E20400007F0A2FB2368326830
:100CB00002210095070001F015FC4346744D1868A9
:100CC0002F6001F053FC2368042B00D192E02868C8
:100CD00001F04CFC45E76F4807F0F0FC8020400035
:100CE00007F086FB0500554C564E236801213268FB
:100CF00001F0CEFD684F23683D60042B75D0802045
:100D0000400007F075FB050032682368022101F0FE
:100D1000BFFD624E3868356001F008FE2368042B81
:100D20005ED0306801F002FE1BE75D4807F0C6FCAC
:100D30009220400007F05CFB040002F009FA9220C8
:100D4000584F40003C6007F053FB040002F000FAEB
:100D5000554D424B2C601A68384C414B394E19683E
:100D6000236838680093336802F012FA24683D4A19
:100D70003D493368126809682868009402F008FA4F
:100D8000EFE64A4807F09AFCA42007F031FB040084
:100D900002F06EFA464FA4203C6007F029FB0400E5
:100DA00002F066FA434D2D4B2C601A68234C2C4BF5
:100DB000244E1968236838680093336802F06CFA8F
:100DC0002468284A2849336812680968286800940A
:100DD00002F062FAC5E6384B186811F0B9F9A8E6D6
:100DE000354B186811F0B4F99BE7334B186811F0D4
:100DF000AFF984E7304B186811F0AAF967E72E4B7A
:100E0000186811F0A5F94DE72B4B186811F0A0F9FF
:100E10002DE7294B186811F09BF913E7264B18684A
:100E200011F096F99AE6C046F451011008520110EB
:100E300038AA0020D0520110145201103CAA002000
:100E4000285201108C05002050AF002054AF002024
:100E5000A452011048AF00204CAF002004950020A0
:100E6000940500200895002098050020B852011034
:100E7000A4040000DCAE0020E0AE00203C520110D3
:100E800058AF00205CAF00205052011060AF00202E
:100E900064AF00206852011068AF00206CAF0020E2
:100EA0007C520110D0AE0020D4AE0020945201102C
:100EB00070AF002074AF0020A0B30020F0B5DE4674
:100EC00057464E464546E0B587B003F08DFB0029F6
:100ED0002FD0FA220023920005F024FD0200002307
:100EE000A8490A604B60A8490C682000E1178B42B2
:100EF00009DC06D007B0F0BCBB46B246A946A04606
:100F0000F0BDA242F6D9121A8B41100019009F4B76
:100F1000009001911A689846D317994211DC0DD0C0
:100F20009B4B18686328E5DC0121012004F0BEF822
:100F3000FEE7FA21890005F0B3FCCFE7009B93425E
:100F4000EED9FF210020FFF7EDF9924CFF21A065BB
:100F50000020FFF7E7F9FF21E0650020FFF7E2F945
:100F600064250600A06DFF21684305F071FCA065B3
:100F7000E06DFF21684305F06BFCE0652800FF2170
:100F8000704305F065FC04212066206D02F01AFB19
:100F90000421606D02F016FB0421E06C02F012FBEC
:100FA00001210727236D626D5D080B400293E36CFE
:100FB00056080A401940039204915A08A16DE36D46
:100FC0003E403D400E391740123BB346B946A1653D
:100FD000E365002902DA00220021A265002B01DA74
:100FE0000023E3656C4807F00BFCA06D05F044FF9F
:100FF00000226A4B05F0A9FEA022694B120606F0FA
:1010000061FB0022654B05F0BEFE05F04DFF0600BA
:10101000E06D05F031FF0022604B05F096FEA02246
:101020005F4B120606F04EFB00225C4B05F0ABFE58
:1010300005F03AFF0590206E05F01EFF0022574B89
:1010400005F083FEA022564B120606F03BFB002261
:10105000524B05F098FE05F027FF310082465148BB
:1010600007F0CEFB1022AB005D194F4B4F48AD008F
:10107000EB185A6018614E4B64217043EF1805F06D
:101080000FFC029A03041B0C002A77D149493A68E5
:1010900046485340194080235B013B4319605B463F
:1010A00010229E005E44404BB600F3185A6018614F
:1010B0003F4B6421F718059B584305F0F1FB039A59
:1010C00003041B0C002A56D13A4A396837484B4072
:1010D00013408022520117433B604B4610229F0071
:1010E0004F44314BBF00FB185A601861304B6421EC
:1010F00099465346584305F0D3FB049A0304B94478
:101100001B0C002A34D12B4A4946096858344B40FD
:10111000134080224946520111430B60224B9C46EA
:101120000123180065442968154388432860180086
:1011300066443168164388433060674439683A43EF
:101140008B4313601C480ECC07F05AFB104C009BDD
:1011500022689446424663446046136005F08CFE64
:10116000164A174B05F00FFE05F09EFE2060D9E6EB
:10117000144A1B04C8E7134A1B04A6E711491B04C1
:1011800085E7C04608A20020CCAE0020AC050020B8
:10119000B0050020E4AE0020F052011000005940DC
:1011A00099990140F852011000000540D1B70000A4
:1011B0000C000540FFFF0000045301109A99999913
:1011C0009999ED3F0000FFFF0121F0B50C00C948DF
:1011D000D0220068120684402000C74C536824685F
:1011E00087B0E340194200D0D4E05061C34D2B6872
:1011F000002B00D1C6E001210C00C148D0220068BC
:10120000120684402000BF4C53682468E340194212
:101210001FD09061BC4C2378002B1FD0BB4C237A8D
:10122000002B2AD1D0231B065B68B94E5B04DB0F71
:101230003360D0231B065B689B04DB0FB54C236037
:10124000B54B1B68072B00D99AE0B44A9B00D358D2
:101250009F46AD4C50612378002BDFD1FFF734FC63
:101260000123AF4A23701268A84C62652A68226580
:10127000AC4A1278002AD2D0237203F0B5F90029C3
:1012800000D1AAE0FA220023920005F04BFB0200F5
:10129000206B616B002300900191226063608B42A0
:1012A00000DD7CE000D177E0236D002B00D0F8E07A
:1012B000D02380221B0652059A61D02380221B0670
:1012C00012059A610023227A914E3360002AB0D031
:1012D00003F08AF9002900D1F6E0FA2200239200F7
:1012E00005F020FB03000093002300200193009AE7
:1012F000019B22606360A26CE36C049205939842A8
:1013000006DC00D0E6E01300009A9A4200D8E1E043
:1013100004980599636C0293DB170393029A039B6D
:10132000801859410B0001990200994205DC00D058
:1013300027E10099914200D823E1029A039B00988B
:10134000019980185941636DA064E164062B00D1B6
:10135000C4E0D0228021120649009161002B00D008
:10136000C1E080218900916168E76F4B186801F046
:1013700063FE2B68002B03D06C4B186801F05CFEF9
:1013800007B0F0BD5E4B1A6801239340D0221206CD
:1013900093613FE7906129E7824200D884E7009893
:1013A0000199E66AF717801979418B4200DD86E0E2
:1013B00002D1824200D982E0236D002B00D1D3E01C
:1013C000D02280211206C9045161012B00D0D0E047
:1013D000802149055161227A76E7FA21890005F0DA
:1013E0005FFA54E7524B3168186800F0A9FD2B688A
:1013F000002BC5D04F4B2168186800F0A1FDBFE756
:101400004D4B186801F0DAFC2B68002BB8D04B4B21
:10141000186801F0D3FCB3E7494B3168186800F055
:1014200079FF2B68002BABD0464B2168186800F081
:1014300071FFA5E7444B3168186801F053F92B6838
:10144000002B9DD0414B2168186801F04BF997E7BC
:101450003F4B3168186801F0F7FA2B68002B00D178
:101460008EE73C4B2168186801F0EEFA88E73A4BAA
:10147000186801F0C1FE2B68002B00D180E7374BC4
:10148000186801F0B9FE7BE7354B186801F068FF7A
:101490002B68002B00D173E7324B186801F060FF16
:1014A0006EE7D02280211206C9049161012B00D081
:1014B00003E780235B059361227A002304E79219F6
:1014C0007B4122636363EFE6FA21890005F0E8F9C6
:1014D000030008E7636D062B00D03AE7D023802293
:1014E0001B0692009A61D02380221B069A6100237A
:1014F000A4E6C046A4050020049500203CAA0020D4
:10150000A805002008950020C4B30020E0050020B5
:10151000B8AE0020BCAE002038AA00202053011035
:101520008C050020C3B3002048AF00204CAF002042
:1015300050AF002054AF0020DCAE0020E0AE002011
:1015400058AF00205CAF002060AF002064AF0020E7
:1015500068AF00206CAF0020D0AE0020D4AE0020D9
:1015600070AF002074AF0020D02380221B065205EC
:101570005A61D02380221B0612055A61227A012368
:10158000A2E6626D062A0BD0D02380211B064900FB
:101590005961002A09D1802292005A6101234DE647
:1015A000D02380221B0692005A61D02380221B0682
:1015B0005A61012342E6C046F0B5DE4657464E4624
:1015C0004546E0B59FB007F027F9364B1B78002B56
:1015D00061D1FEF767FFFEF7BFFEFFF7BDF8324BA4
:1015E0001868324B1B68C018314B1B68C018314B50
:1015F0001B68C018304B1860304B1B78002B01D093
:101600002F4B186810F0A4FD2E4B2F4E1B68D027CF
:1016100009932E4B34009A461B6835000A932C4BD5
:101620003F069B461B680B931C2399461B3B984621
:10163000B144286901F0F6FF43462A690435934016
:101640007B624D45F5D12023D02798460125B04433
:101650003F06E06A01F0E6FF2B00E26A04349340A3
:101660007B624445F5D12A00099B04339B00F35863
:101670009A400A9B7A610A339B00F3185B689D408D
:101680000B9B7D610A2B30D8124A9B00D3589F4692
:10169000C83002F0BBFE002008F068FF0028F7D039
:1016A00097E7C046C6B30020289500208805002093
:1016B0009005002014950020A0B30020C2B30020A4
:1016C000209500208C050020E4AE00203CAA0020DC
:1016D00038AA00202C540110F523B3654D3BF36567
:1016E000E848563B336607F08BF86424B06DFF2161
:1016F000604305F0ADF8B065F06DFF21604305F083
:10170000A7F8F065306EFF21604305F0A1F80421D1
:101710003066306D01F056FF0421706D01F052FF0C
:101720000421F06C01F04EFF01230727326D5408AD
:101730001A400992726D3C4055081A400B92F26CA7
:101740003D40134051080D93B26DF36D0F400E3ABA
:10175000123B0A950C97B265F365002A01DA002264
:10176000B265002B01DA0023F365B16DC64807F0BE
:1017700047F8B06D05F080FB0022C44B05F0E5FA98
:10178000A022C34B120605F09DFF0022BF4B05F0BF
:10179000FAFA05F089FB0500F06D05F06DFB0022FB
:1017A000BA4B05F0D2FAA022B94B120605F08AFF17
:1017B0000022B64B05F0E7FA05F076FB0700306E25
:1017C00005F05AFB0022B14B05F0BFFAA022B04B46
:1017D000120605F077FF0022AC4B05F0D4FA05F0B5
:1017E00063FB29008146AB4807F00AF81022A300EA
:1017F0001C19A94BA948A400E3185A601861A84B0A
:1018000064216843984605F04BF8099A0304A04404
:101810001B0C002A00D07AE2A24A414609689F4880
:101820004B401A40802341465B010B431A600A9BE0
:1018300010229C469D006544974BAD00EB185A6002
:101840001861974B64217843984605F029F80B9A64
:101850000304A8441B0C002A00D055E2914A4146DB
:1018600009688E484B401A40802341465B010B4378
:101870001A600C9B10229C469F006744864BBF0059
:10188000FB185A601861864B642198464B465843B2
:1018900005F006F80D9A0304B8441B0C002A00D08A
:1018A0002FE2804A4146096858364B401340802257
:1018B0004146520111430B60774B9C4601231800AF
:1018C00064442168144388432060180065442968F3
:1018D000154388432860674439683A438B43136053
:1018E00071480ECE06F08CFF704B1B78002B2FD06A
:1018F0006F4B0FAD19002A0051C951C251C951C2D5
:10190000096816AC116022001C3343CB43C243CBA1
:1019100043C203CB03C20123D02798463F0640CDE4
:10192000300001F07FFE4346B3407B627B61AC42F6
:10193000F5D1D0261EAB98460127360620CC2800CC
:1019400001F070FE3B00AB4073627361A045F5D1BE
:10195000584806F0B3FE5B465748196806F050FF3A
:1019600053465648196806F04BFFAD21544806F01F
:1019700047FF0021534806F043FF534BD0279B46B7
:10198000524B01269846524B524C9A463F06FFF75F
:101990001BFCFFF793FA02F027FE002900D1DDE0DF
:1019A000FA220023920004F0BDFF32007B6805009C
:1019B0009B091A401E4200D1DCE0236EA26E1A433E
:1019C00000D190E1FA22013323665200934200D104
:1019D0006BE132007B689B0A1A401E4200D1D1E0C5
:1019E000FA22636E520001336366934200D11CE118
:1019F000E36D9D4200DDCAE0E36E022B00D1D5E02D
:101A0000237A002BC3D002F0EFFD002900D12FE193
:101A1000FA220023920004F085FF00230290039332
:101A200002980399226B636B20606160994204DC29
:101A300000D0E5E0904200D8E2E0E16A0691C917E3
:101A400007910698079912184B41029803999942F9
:101A500000DDCDE002D1904200D9C9E0236D002B1A
:101A600000D11BE18022D2047A61012B00D018E161
:101A700080235B057B6102F0B7FD002900D1CFE038
:101A80002AE0C046BC530110F0520110000059403A
:101A900099990140F852011000000540D1B70000AB
:101AA0000C000540FFFF000004530110B4050020A6
:101AB00058540110A0550110C4530110E0530110F7
:101AC000FC53011018540110505301107C530110A5
:101AD0008C530110E0050020FA220023920004F04C
:101AE00021FF00230090019300980199A26CE36C00
:101AF00020606160994204DC00D0BEE0904200D8D2
:101B0000BBE0616C0491C9170591049805991218FE
:101B10004B4100980199994202DC5BD1904259D91E
:101B2000009A019B0498059912184B41A264E36442
:101B3000636D062B00D1A4E080225200BA61002B15
:101B400000D0A1E080239B00BB61FFF73DFBFFF7C6
:101B5000B5F902F049FD002900D021E7FA218900FA
:101B600004F09EFE32007B6805009B091A401E426D
:101B700000D022E7226632007B689B0A1A401E4290
:101B800000D02DE7E36D62669D4200DC34E7002261
:101B90000023A266E366724B40469C466544E565B9
:101BA00006F08CFDE36E022B00D029E7217A013B81
:101BB00059405046217206F023FE00230022A266FF
:101BC000E366237A002B00D01DE70121012003F0FA
:101BD0006DFAFEE7636D062B00D18CE08022520087
:101BE0007A61002B00D089E080239B007B61CEE6E8
:101BF000029A039B0698079912184B41226363636C
:101C0000236D002B43D08022D204BA61012B41D135
:101C100080235B05BB6102F0E7FC002900D05BE795
:101C2000FA21890004F03CFE5BE7237A002B13D0F5
:101C3000236C0133042B00DD0023236402339B005B
:101C4000E3185B68A16B9946E363464804F000FE25
:101C5000494604F0FDFD6064A36E023B012B00D9F0
:101C6000C6E6E36E4048591CE16606F0C9FDBFE6D2
:101C7000FA21890004F014FECFE6636D062B00D034
:101C80005AE780239B00BB618023BB617FE68023F2
:101C90005B05BB6180231B05BB61ECE680235B0514
:101CA0007B6180231B057B61E5E6237A002B13D043
:101CB000A36A0133042B00DD0023A36202339B00DF
:101CC000E3185B68216A99466362264804F0C0FD08
:101CD000494604F0BDFDE062A36E5846591CA1665A
:101CE00006F08EFD75E61E4B2048EB18E36506F006
:101CF00087FD236E66E680239B007B6180237B61EA
:101D000045E61B4A1B04CDE5194A1B04A7E5184A02
:101D10001B0482E5FA231748B365B43BF3653366C9
:101D200006F06EFDE1E44323B3655D33F3651248CD
:101D30005F33336606F064FDD7E4FA230F48B365DA
:101D4000F365963B336606F05BFDCEE43223B36564
:101D5000A033F3650A48733B336606F051FDC4E4D3
:101D60001027000060EA0000645301104053011086
:101D70000000FFFFA0530110A4530110AC53011049
:101D8000B45301100F49104B0A00180070B51032FF
:101D900070C870C270C870C200681C3310600A003E
:101DA0002C3231CB31C231CB31C211CB11C2032322
:101DB000CB6401330B6501334B6500238B65CB6529
:101DC0000B6670BDE4AE002058540110F0B51E0043
:101DD0008023C6465B0098460D00170000211A00BC
:101DE00000B5040006F0F8FA002043469022FA21DC
:101DF000E0500433E0500433E0540C33E050520020
:101E00000833E050A0540432A1500432A0500432F0
:101E1000A050363108326050A0501930FF302550A4
:101E2000012D13D0022D05D10D2060500C21A150A1
:101E30001522E25086235B00E750069A0433E650F1
:101E400004332000E25080BCB846F0BD0B38FF38A8
:101E500060502239FF39A1501F3AFF3AE250E9E7BA
:101E6000F0B506000400451C83B0FF350220FEF7E4
:101E70004DFA01C4A542F9D188235B00F358072B22
:101E800007D8294A9B00D3589F46802310225B0025
:101E9000F25064230A220021009305200023FEF75C
:101EA0004FFA80250100214806F0AAFC6D00204869
:101EB00006F0A6FC71591F4806F0A2FC7359002BCE
:101EC0000ADD00241C4FA300F158380006F098FCEE
:101ED00073590134A342F6DC184806F091FC03B0B4
:101EE000F0BD8A235B00F058083BFF3B009364225F
:101EF000073B0021FEF724FA8C235B00F35858437C
:101F000080235B00F050C4E711210420FEF70AFA99
:101F100080235B00F050BCE707210520FEF702FAA2
:101F200080235B00F050B4E7D0540110A45401109A
:101F3000B454011034520110C4540110C85401109B
:101F4000902370B55B00C35C04000D00002B16D11C
:101F500084235B00E35C002D02DD002B33D070BDD9
:101F6000002B56D1842300225B00E2542C33E2582C
:101F7000343BFF3B9340D02212065361EFE78E23A0
:101F80005B00C2581C3BFF3B9340D02212065361BA
:101F900002F02AFB002937D0FA220023920004F035
:101FA000C1FC94235B00E3588342D1D290230022EA
:101FB0005B00E254043BE2581C3BFF3B9340D022C1
:101FC00012069361C4E702F00FFB002935D0FA2214
:101FD0000023920004F0A6FC962382265B00760084
:101FE000E050A3599A001559012D52D08021822228
:101FF0004900615801335200A3508B4227DA8423F1
:1020000001225B00E254AAE7FA21890004F048FCAF
:10201000C7E702F0E9FA002914D0FA22002392005F
:1020200004F080FC96235B00E158083B411AC8315C
:10203000E1501E4806F0E4FB94E7FA21890004F021
:102040002FFCC9E7FA21890004F02AFCEAE7002303
:10205000A3502133043AFF33FF3AE25402F0C4FAAA
:10206000002910D0FA220023920004F05BFC030048
:1020700092225200A058C01894235B00E0500C48F4
:1020800006F01CFBBBE7FA21890004F009FC030001
:10209000EEE7084806F012FB9A235B00E3589D40E8
:1020A000D0231B069D61A359A0E7C046005501102F
:1020B000F8540110F0540110F8B51F00012304007A
:1020C0005B420E0008C015000021802206F084F952
:1020D000200080220021843006F07EF98223002037
:1020E00032225B00E0500833E0501833E2500433F2
:1020F000E0500433E0500833E0500433E054C83279
:102100000433E2500433E0500433E05001352C3BFB
:10211000E550069A0433E7502C33E250183B200078
:10212000E650F8BDF0B5CE4647469823012280B56B
:102130005B00C3585242050083B00260012B00D1FE
:102140007AE0022B09D10D222733FF33C25004332A
:10215000013AC25008330932C2500A2006F05EFA32
:10216000674806F0ABFA8E235B00EB58072B15D8B7
:10217000644A9B00D3589F46A4235B00E858403B29
:10218000FF3B00936422043B0021FEF7D9F898231B
:102190005B00EB58584384235B00E8502B1D9846A6
:1021A0001C0001232F009226994684377600642074
:1021B000FEF7ACF8A959884201DA4B462360043493
:1021C000BC42F4D184235B00E85800283FDD43463D
:1021D000002203E001320433824238D01C68002C14
:1021E000F8D084264848760006F00AFBA9594748EB
:1021F00006F006FB0A2006F011FAAB59002B0BDDA6
:102200000024434F434602CB3800984606F0F8FAC4
:10221000AB590134A342F5DC0A2006F0FFF90A208D
:1022200006F0FCF9882396225B005200EA5003B0C6
:10223000C0BCB946B046F0BD2833FF330F32C250A0
:1022400004330132C25008330732C25085E701001F
:102250000020FEF767F8012380002818436024332C
:10226000FF33E958BDE7A4235B00E858413BFF3B3F
:1022700000936422043B0021FEF762F884235B0094
:10228000E8508BE7982464002B59012B28D0022BAF
:1022900000D083E74733FF33E858403BFF3B0093D0
:1022A00064220021063BFEF74BF80400460009219A
:1022B0000320FEF737F88442F9D04300A342F6D05A
:1022C0008642F4D067E7842308225B00EA5065E782
:1022D00006210320FEF726F884235B00E8505DE723
:1022E0004833FF33E858403BFF3B00936422063BF2
:1022F0000021FEF725F884235B00E8502B59C6E740
:1023000010550110485501101C550110345501108D
:10231000C4540110F0B5C6469C2300B55B00C35CF5
:1023200004000D00002B20D1002D07DD1623FF3304
:10233000E35C002B3DD080BCB846F0BD002DFAD147
:102340001623FF33E35C002B5AD116230022FF3300
:10235000E2541733E2582C3BFF3B9340D022120645
:10236000536180231B039361E5E79A235B00C25806
:10237000343BFF3B9340D0221206536102F034F904
:10238000002938D0FA220023920004F0CBFAA223CD
:102390005B00E3588342C7D29C2300225B00E254D7
:1023A000043BE258343BFF3B9340D022120693613A
:1023B000BAE702F019F9002936D0FA220023920078
:1023C00004F0B0FAA0235B00E05086251623842693
:1023D0000127FF336D007600E7546159A3598B4202
:1023E0003ADD8B00E3185A68012A27D08623013191
:1023F0005B00E1509FE7FA21890004F051FAC6E73B
:1024000002F0F2F8002914D0FA220023920004F01E
:1024100089FAA0235B00E158043B411AC831E1501E
:102420002D4806F0EDF990E7FA21890004F038FA1A
:10243000C8E7FA21890004F033FAEAE783329B58AF
:10244000012BD3D1A832A2589340D0221206936117
:1024500080231B035361C9E7204806F0D1F900230C
:102460001F486351984606F029F9822149006358B4
:102470001A0020329200A2185760A259013363500B
:10248000934221DD43466350002A05DD20000021F0
:102490009200843005F0A0FF9C2301225B00E254EF
:1024A00002F0A2F8002911D0FA220023920004F0D1
:1024B00039FA03009E225200A058C018A2235B00E4
:1024C000E050383BE1588CE761598AE7FA218900EE
:1024D00004F0E6F90300EDE700550110685501101E
:1024E000F8540110F0B51E008023C6465B009846E4
:1024F0000D0000B5170000211A00040005F06CFF64
:1025000000204346FA22E0500433E0500433E05404
:102510002433E0540433E2500433E050069A043389
:10252000E050203BE2500433E550012D14D0022D41
:1025300009D190230D225B00E2500433013AE250AE
:1025400004330932E25086235B00E7500433200055
:10255000E65080BCB846F0BD0E220433E25004338E
:102560000132E25004330732E250ECE78823F0B541
:10257000C6465B00C358050000B5072B0DD84F4A6F
:102580009B00D3589F468E235B00C358012B00D07D
:102590007AE0802318225B00EA50494806F08EF862
:1025A00086235B00E958474B8A271800984606F0B7
:1025B00027F90A2380267F00EB51434806F020F9D3
:1025C000E959404606F01CF97600404806F076F8D6
:1025D000A959404606F014F9A9590020FDF7A2FEBA
:1025E00004000100404606F00BF90123A4006351EA
:1025F000AB59002B0FDD0123002498466420FDF722
:1026000085FEEB59984232DA4246A300EA50AB59B4
:102610000134A342F2DC8E24640029592C4806F0D0
:10262000EFF829592B4806F0EBF82B4E29683000BB
:1026300006F0E6F807271C3CFF3CA3003000E958F1
:10264000013406F0DDF8274202D10A2005F0E6FF4A
:10265000202CF2D18E2464002959204806F0D0F8AD
:1026600029591F4806F0CCF880BCB846F0BDAB59DC
:102670000134A342C2DCCEE71F210F20FDF752FE3A
:1026800080235B00E85088E7022B00D085E7802399
:1026900030225B00C25080E714210A20FDF742FE81
:1026A00080235B00E85078E7802340225B00C25023
:1026B00073E7802320225B00C2506EE7CC550110E7
:1026C00078550110CC50011084550110905501101F
:1026D00098550110A4550110C4540110B8550110AB
:1026E000A0550110962370B55B00C35C04000D007B
:1026F000002B1BD1002D05DD84235B00E35C002B48
:1027000038D070BD002DFCD184235B00E35C002B2E
:1027100055D1842300225B00E2541C33E258243B51
:10272000FF3B9340D02212065361EAE794235B00FB
:10273000C258283BFF3B9340D0221206536101F060
:1027400053FF002936D0FA220023920004F0EAF861
:102750009A235B00E3588342CCD2962300225B008D
:10276000E254043BE258283BFF3B9340D022120640
:102770009361BFE701F038FF002932D0FA2200232D
:10278000920004F0CFF89C238222802101255B0077
:10279000E0505200303B4900E5546158A35899423B
:1027A00029DD9A001259012A58D0822201335200A1
:1027B000A350A6E7FA21890004F072F8C8E701F0F7
:1027C00013FF002912D0FA220023920004F0AAF885
:1027D0009C235B00E358C01A9823C8305B00E0508C
:1027E00097E7FA21890004F05BF8CCE7FA21890029
:1027F00004F056F8ECE700232248A35005F05EFFF2
:1028000096235B00E55401F0EFFE002920D0FA2268
:102810000023920004F086F8010098235B00E05842
:10282000194D09180433E150280005F0E9FF01F0C3
:10283000DBFE002920D0FA220023920004F072F877
:102840000100280005F0DCFF82235B00E358A8E7C5
:10285000FA21890004F024F80100DEE792235B00EE
:10286000E3580A489A40D0231B069A6105F026FFD8
:1028700082235B00E35898E7FA21890004F010F8FE
:102880000100DEE7EC550110F85501100856011063
:10289000F8B504000D001700002140221E0005F0CD
:1028A0009BFD200040220021403005F095FD2000D6
:1028B00040220021803005F08FFD0020C023E4225B
:1028C000FA21E0540433E0500433E0500433E05480
:1028D0000433E0500433E0500433E0500433E0505C
:1028E0000433E050A0540432A1500432A05004320A
:1028F000A0500432A550012D0FD0022D07D1F8228F
:102900000D21A15004320139A150E73AE250D823F9
:10291000E75004332000E650F8BD0432EC39A150F2
:1029200004320131A150E63AE250F0E7DC23F0B581
:10293000C646C358050000B5072B00D976E03F4ACC
:102940009B00D3589F46C4231022C2500C330C3A2C
:10295000C250C4232E00002798460220FDF7D6FC63
:10296000434630603064EC5801370436BC42F4DC36
:10297000012C14DD26000F36B600AE190FF0F2FB65
:10298000210003F065FF8900691837680B6C013C72
:1029900033600F64043E012CF0D1C423EC58002CAA
:1029A00011DD2800A200C42600242900803012F086
:1029B000F7FA234FA300E958380005F021FFAB597F
:1029C0000134A342F6DC1F4805F078FE80BCB8460F
:1029D000F0BDC4230822C2503033C358012B28D085
:1029E000022BB6D1CE33C250B3E70D210820FDF73C
:1029F00099FCC424072128510320FDF793FCD02320
:102A0000E85028590028A4DCDDE714210320FDF755
:102A100089FCC4230322E8500C33EA50F2E7C423B4
:102A20000C22C2500C33093AC25092E7C423C0585A
:102A3000E8E7CF33043AC2508BE7C046185601107E
:102A4000C454011014560110E42370B5C35C040093
:102A50000D00002B13D1CC23E35C002D02DD002BF5
:102A60002CD070BD002B77D1CC230022E254303320
:102A7000E258FB3B9340D02212065361F1E7E0237A
:102A8000C258DF3B9340D0221206536101F0ACFDE7
:102A900000295CD0FA220023920003F043FFEC23CC
:102AA000E3588342D7D2E4230022E254043BE258A5
:102AB000DF3B9340D02212069361CCE701F094FDF6
:102AC000002959D0FA220023920003F02BFFF023B3
:102AD000E050283BE3581A00203292001259012A94
:102AE00005D1FC2161588A40D02109068A61C4229F
:102AF000C821A25801336350934224DB0023635062
:102B0000C033E35C002B41D0002A05DD200021000A
:102B10009200803012F044FA0023C022A3541432F1
:102B2000A350E433D33AE25401F05EFD002943D0D0
:102B3000FA220023920003F0F5FE0300E822A058D9
:102B4000C018EC23E050CC230122E25489E7FA219B
:102B5000890003F0A5FEA2E701F046FD002910D090
:102B6000FA220023920003F0DDFEF023E358C01A9E
:102B7000E823C830E05077E7FA21890003F090FE9F
:102B8000A5E7FA21890003F08BFEEEE70C316358CC
:102B9000013363500439615801398B42D3D1002A83
:102BA00006DD2100200092004031803012F0F8F95B
:102BB000C0230122E254C6E7FA21890003F070FE27
:102BC0000300BBE770B504008022002105F004FC7F
:102BD000200080223349803005F004FC601C8022F4
:102BE0000021FF3005F0F8FB8023012520005B0069
:102BF000E5500C33E5500C33E5501033E55081308F
:102C00000833E55080220021FF3005F0E5FBC023AA
:102C10005B00E5500C33E5500C33E5501033E550C4
:102C20000C33E5504C3380221F49E01805F0DAFBE5
:102C3000A0239B0080221D49E01805F0D3FBC02390
:102C40009B0080221A49E01805F0CCFBE0239B0092
:102C500080220021E01805F0BFFBE0239B00E55037
:102C60000C33E5500C33E5501033E5500433E55098
:102C70001033E550443380220021E01805F0ACFB0E
:102C80008023DB00E5501033E5501033E55010335E
:102C9000E5500023074A2000A3500432A350064AFF
:102CA000A35070BD805601100057011080570110CD
:102CB00000580110840400008C040000F8B5CE46D2
:102CC00047461D0090260400354B80B5C1500433A3
:102CD000C250344A6B1C08998350F600043281506C
:102CE0008351314805F0EAFC2900304805F088FDA1
:102CF000A0592F4D810049198025ED00A946803D3E
:102D0000A846803DAC4622000023803D6719803DE7
:102D1000A144A044A4446619082804D80D68AF460D
:102D20004D46ED58156004330432802BF4D1082051
:102D300008214042FDF7F6FA1E4B1F4EE0501030BE
:102D4000A0510F2809DD0F250220FDF7DFFAAB00A7
:102D5000E050A3590135AB42F6DCC0BCB946B046E1
:102D6000F8BD4546ED581560DDE725008135FF3596
:102D7000ED581560D7E725008035ED581560D2E78E
:102D8000651CFF35ED581560CDE7FD581560CAE7A5
:102D9000F5581560C7E76546ED581560C3E7C046AE
:102DA0009C0400009404000038560110CC5001101F
:102DB000405601108C04000084040000234B0121C4
:102DC000C258D0231B065B6870B5D340040019427B
:102DD00004D09223DB00C05C002810D0D02109066B
:102DE0004B68D3400122100018401A4206D19223AA
:102DF000DB00E0541033E3589A404A6170BD9125DE
:102E0000134AED00E154A25863599A420ADD9A0030
:102E10001259012A0CD091220133D200A3500B4B3E
:102E2000E258DBE760510B4805F048FC6359EEE7D8
:102E30009423DB00E35808489A40D0231B069A618C
:102E400005F03CFC9123DB00E358E4E79C04000020
:102E500084040000645601107456011010B504007B
:102E60008022002105F0B8FA200080220021803065
:102E700005F0B2FA601C80221249FF3005F0B2FA68
:102E80002000813080220021FF3005F0A5FA802249
:102E9000002392008321A3500432A3500432A35094
:102EA00000228900635208492000625402316350B5
:102EB000043163500431635004316254882292001B
:102EC000A35010BDAC5801100E020000F8B5CE465C
:102ED0004746040080B554480E0017001D0005F059
:102EE000EDFB8A239B00E750043BE650089A01352E
:102EF000143BE55004338125E25032220C33AD00FF
:102F0000E25000206159FDF70DFA08238222635137
:102F100000239200A3500432A3540133FF33E3583B
:102F2000082698460020671CFF3705000820FDF79B
:102F3000EDF98300FB181A68AD00013EEA51002E3E
:102F4000F3D1424681261A60B600A359002B33DD27
:102F50000123882700259846BF006420FDF7D6F995
:102F6000E359984255DA4246AB00E250A359013585
:102F70009D42F2DB002B1FDD88239B009846012336
:102F800026008127002599468036BF006420FDF782
:102F9000BDF94346E358984240DA4B4608C6E25929
:102FA00001359542F2DB002A06DD20008130210048
:102FB0009200FF3011F0F4FF81271C48BF0005F09C
:102FC0007DFBE359002B0ADD0025194EAB00E158CB
:102FD000300005F015FCE3590135AB42F6DC15482D
:102FE00005F06CFB81239B009846E358002B0CDD19
:102FF000270000250E4E8037300002CF05F000FC80
:103000004346E3580135AB42F6DCC0BCB946B04696
:10301000F8BDA3590135AB429FDCABE7E25901355E
:103020000436AA42B2DCBEE780580110985801105D
:10303000CC5001109058011089239B00C258D02316
:103040001B065B68F0B5D340C6460121040000B5FD
:10305000194203D03B4BC05C002811D0D021090697
:103060004B68D3400122100018401A4205D1354B5D
:10307000E0541A33E3589A404A6180BCB846F0BD28
:103080008225E154AD000A3BE1586359994238DC8E
:103090006051083D6259130040339B0001321B59B7
:1030A0006251914243DD83229200A25C002A3BD10F
:1030B0001A0020329200125960339B001A510029E5
:1030C0003EDD812326009B000025984681361E4F59
:1030D000FF36380002CE05F093FB4346E358013536
:1030E000AB42F6DC194805F08BFB80239B00E158CE
:1030F000380005F085FB822389229B009200E3586B
:10310000A2581900603189000959012904D082218F
:10311000013389006350A1E78A2080002058814054
:10312000D02000068161F2E79A001259C4E760518D
:10313000832001258000225C6A40D2B22254B5E788
:10314000014FCFE70E020000CC500110A058011033
:1031500010B504008022002105F03EF920008022F5
:103160000A49803005F03EF9802200235200A35026
:103170000432A3500432A3500432A3500432A354A7
:103180000432A35004322000A35010BD2C5901106A
:10319000F0B50500902040002A508E22C64652000D
:1031A000A9500133083AAB508C23802700B5069A0A
:1031B0005B00EA501422143BFF3B7F00EB510433C9
:1031C000FF33EA5004332C00002698460820FDF710
:1031D0009DF84346E850030008331B01EB180FCB62
:1031E000E36020606160A260EB5901361034B342A5
:1031F000ECDC80BCB846F0BD8E235B00C258D02307
:103200001B065B680121D34010B5194204D0882306
:103210005B00C45C002C10D0D02109064B68D34061
:10322000012214001C401A4206D188235B00C454BA
:103230001033C3589A404A6110BDC15408310C3B49
:10324000FF31C358415899420FDD591C9B001B5850
:10325000012B06D1902464000459A340D0242406F5
:10326000A36182235B00C150D6E701210023EDE773
:1032700010B580220021040005F0AEF80023802262
:10328000A3500432A3540C32A3500432A35004328E
:103290002000A35010BDC046F0B50400A020CE46CB
:1032A000474622509C22581C882380B583B0A150E9
:1032B0000A9AE0500433E250503B07220121009368
:1032C0001E3BFDF73DF890232021E0500020FDF744
:1032D00029F80123800003517F3398467F3B250066
:1032E000902799469826A0446420FDF70FF8E359EB
:1032F000984204DA4B462B60A3590133A351103591
:103300004545F1D18C23E0580C33E3580722009354
:1033100001210223FDF714F894230026E050231F17
:1033200094279846864209DA2020FCF7EFFF8000B8
:103330000559012D07D0E0598642F5DB03B0C0BC2A
:10334000B946B046F0BD64200136FCF7DFFF3128F6
:1033500002DCE0596560EFE743461D60E059EBE7AA
:10336000D02370B59C251B0642595B680121D340D0
:103370000400194203D08423C05C00280FD0D02160
:1033800009064B68D3400122100018401A4205D1AB
:103390008423E0541C33E3589A404A6170BD802670
:1033A000E154A3591F2B0EDC99000959012903D0C0
:1033B000802101336350E2E7A02020588140D020D3
:1033C00000068161F4E7A051024805F077F9A3599E
:1033D0006259E9E7AC59011030B5002585B00A4CB7
:1033E0000A4B02AA1380682102232000009507F0EF
:1033F0006DFF074B03AA138068210223200000956C
:1034000007F064FF05B030BD009600200080FFFF8C
:1034100002A0FFFF10B50B490B4807F02DFF032159
:10342000102000F0CFF80321112000F0CBF800228B
:103430000121102000F0DEF800220121112000F00F
:10344000D9F810BD801A060000960020F0B5C646D7
:103450001C00502300B586B004AD2B700E9B0E00EF
:10346000DBB20A2118001700984603F019FA43004E
:103470001B185B0043446B700D9B0A21DBB21800E4
:10348000984603F00DFA43001B18FFB25B0043445B
:103490000A213800AB7003F003FA43001B185B00ED
:1034A000F6B2FF180A213000EF7003F0F9F943007B
:1034B0001B185B00E4B2F6180A2120002E7103F0FD
:1034C000EFF943001B185B00E4180C9B6C71DCB235
:1034D00020000A2103F0E4F943001B185B00E41804
:1034E0000C4B0D26AC7198460324002703AD6E44A7
:1034F000335D2C706B702A000223682140460097D0
:10350000013407F0E3FE0A2CF2D106B080BCB846C5
:10351000F0BDC046009600200F22F0B5032601251D
:1035200085B0274F6A440400167001230095682176
:10353000380007F0CBFE0023A21C0093682138005E
:10354000073307F02BFF0722A078030913409900E7
:10355000C9180F23490018400918E078E1600709ED
:103560001740B900C919184049000918216121798B
:103570000F093740B800C019194040004018606179
:10358000607901090E40B1008919184049000918F5
:10359000A161A1790A40E179E2610A091540AA0016
:1035A0005219194052005218217A226208098200E9
:1035B000121852000B40D318636205B0F0BDC0462C
:1035C00000960020094A830094464022634410B5C7
:1035D0001C68C0006240C024144080225201134382
:1035E0001C60034B9C466044416010BD04C0014018
:1035F000004001400A4B80009C460423604400299F
:1036000001D00C230821002A00D10B00026853408E
:103610000C221A4080235B01184302607047C046A9
:1036200004C001400123D0228340120693629361BB
:10363000094A83009446402263441968C0004A4006
:10364000C02111408022520113431960034B9C4654
:10365000052360444360704704C0014000400140BE
:1036600070B5EFF3108C72B60D4D2B68002BFCD0AB
:10367000BFF35F8F0724CB08C618C05C01230C4042
:10368000A3401C000440034207D103433370BFF33F
:103690005F8F2C608CF3108870BD100001F024FB4C
:1036A0002C0100D0F8B54746CE46884680B5EFF3EA
:1036B000108C72B6214D2C68002CFCD0BFF35F8FAC
:1036C0009A422CD8D4080727055D06190124174013
:1036D000BC402C421FD007210127894609E0D408AD
:1036E000055D06194C4639001440A1400C002942E2
:1036F00011D001329342F2D201204042BFF35F8FDA
:1037000000220E4B1A608CF3108800280FDBC0BC1F
:10371000B946B046F8BD2C4310003470EEE7BFF355
:103720005F8F00232B608CF31088012040424346BA
:10373000002BECD0089801F0D7FAC0462C0100D03D
:10374000024B18688007C00F7047C04600C0064093
:103750000021044B044ABFF35F8F02C39342FAD1A6
:103760007047C046000100D0800100D0044A1078A4
:10377000431CDBB2172B00D9102313707047C046CF
:103780002C95002000B5054B83B001000093182252
:103790001F230348FFF786FF03B000BDC059011087
:1037A000F0A9002001238340002904D0034A1360BC
:1037B000034A13607047034A1360FBE780E200E0AE
:1037C00000E100E080E100E001238340014A136052
:1037D0007047C04600E200E0084B10309B68800054
:1037E000C358002B07D0064A00209B1A2F229A426A
:1037F0004041C0B270470020FCE7C04600ED00E049
:1038000030950020024B10309B688000C0587047F4
:1038100000ED00E070B50D00EFF3108672B60F4AB0
:103820001368002BFCD0BFF35F8F0D4B10309B68EB
:1038300084001B590B4A934203D09D4201D001F0F2
:103840006BFA074B9B681D51BFF35F8FBFF35F8F10
:103850000022024B1A6086F3108870BD240100D04C
:1038600000ED00E0CD010010F0B557464E46DE46B3
:103870004546E0B585B0060002911700EFF3108BC6
:1038800072B6674A1368002BFCD0BFF35F8F002528
:10389000644B5D579A46002D00DAA5E06B00624C40
:1038A00003935B199B009846A146C1444B46524680
:1038B0009B79103613705D4BB2009B68019299584A
:1038C0000B1B2F2B34D95A4B994200D0A5E0039BF8
:1038D000584A9C46584B6544AD00635343460233F7
:1038E0006519E418554B0121043B1B1B1B055B0D9F
:1038F00013436B80524BEF71AB80FF23AB71029B84
:10390000AB604B460B431900484B019A9B6899509A
:10391000BFF35F8FBFF35F8F0022414B1A608BF3C1
:10392000108805B0F0BCBB46B246A946A046F0BD23
:1039300001200A008243D379BB422FD845464E4628
:10394000130040491B1B5B415943090D3A4B63531C
:103950003A4B02356519043B5B1B1B05354D5B0D6E
:103960002B4373800426B446E0444444131F1B1BBE
:103970004C46A17102991B05A16049465B0D2B4382
:10398000A380314BE77101431360BDE75800C018B5
:1039900080002018C679BE422CD902000623D356D7
:1039A000002BF3DA101D8246BD200002804604265B
:1039B0007642B446E14450464E46361A3005400D34
:1039C000824656461B48957106439680039A944654
:1039D00065441D4AAD00641922604246A371029BF2
:1039E000A280E771A3608FE701F096F900255346A6
:1039F0005D5753E7101D82469088400500158446A8
:103A00004046D444664604302018301AE0260005AB
:103A1000400D360230438046C9E701F07DF956E794
:103A2000240100D0BEB300203095002000ED00E05E
:103A3000CD01001000E0FFFF00A1FFFF6095002016
:103A400000BDFFFFAAAA000001488047F0B5DE468E
:103A500057464E464546E0B50C0083B0EFF3108A5A
:103A600072B65A4A1368002BFCD0BFF35F8F102246
:103A7000914681444A46564B96009B689D59554B4A
:103A800098469D4205D0A54216D0534FEB1B2F2BD5
:103A900014D94F4B9B689D51BFF35F8FBFF35F8F6E
:103AA00000224A4B1A608AF3108803B0F0BCBB4670
:103AB000B246A946A046F0BD1D00EAE701238340B7
:103AC0009B465A46454B1B681A4000925A46444B47
:103AD0001A60BFF35F8FFCF7C6FB0190002803D08C
:103AE000814501D001F018F901232A009A43936817
:103AF0009C4208D15FE04B005B189B00FB18996863
:103B0000A14211D01A00062151560029F3DA009B78
:103B1000002B05D05A46334B1A60304B1A60B8E779
:103B20005A462F4B1A60B4E706215956002921DB6B
:103B30004A00501880003C188046A0689860E079E0
:103B4000D871062020569871002824DBA488F81A22
:103B50006405241544440019E0240005400D2402A6
:103B6000204398805218204B9200BF181A78197081
:103B7000BA71CCE70199002910D1FF3191711B492D
:103B8000918019490A789A71194ADB1B5B415A43A3
:103B9000120D0A70BBE7BD200002E2E7154A164984
:103BA000D21A083A5002400D014399801349520835
:103BB0000A43DA80ABE70621515613000029B7DA31
:103BC000019A002AEAD14546DBE7C046240100D02D
:103BD00000ED00E0CD0100103095002000E100E094
:103BE00080E100E080E200E0BEB3002000BDFFFF06
:103BF000AAAA00006A95002000F0FFFF00F8FFFF6E
:103C0000F8B5012504000543FCF72DFBEFF3108CFC
:103C100072B6214A1368002BFCD0BFF35F8F1F4E92
:103C20002100B7681E4A1F4B891A49414B431B0D9F
:103C300059B28300F858A8421CD00623D3568B42B1
:103C40001CD01223D3568B4222D01E23D3568B4234
:103C500020D02A23D35603208B4210D0124B1A783F
:103C60001970A271BFF35F8F00220B4B1A608CF3A7
:103C70001088F8BDB2680D48D050EFE7002043002F
:103C80001B189B00D218FF239371094B9380E5E723
:103C90000120F4E70220F2E7240100D000ED00E06B
:103CA00030950020AAAA0000BEB30020CD0100106C
:103CB00000BDFFFF054B064A1360064A13605360C0
:103CC0009360D360136153619361704780808080FB
:103CD00000E400E004E400E0D02300B51B061B680C
:103CE0000100074883B0C018064B0022009305234B
:103CF000FFF7D8FC002801DB1F23181A03B000BD12
:103D0000B8B30020DC590110024B9C466144890085
:103D1000016070474000003483680B4810B584464A
:103D200061446244090112019A18591854684B6899
:103D300001209C4201D802D00020C0B210BD126800
:103D40000B689A42F9D8F7E7FFFFFF0F0A4B196893
:103D5000EFF3108072B60A68002AFCD0BFF35F8FC1
:103D60001B68BFF35F8F00221A6080F3108840BF8A
:103D7000002000217047C04684B30020F8B55746A4
:103D80004E464546DE46E0B599460CAB1C780DAB79
:103D90001B78060090469A460768002C11D1BC7B20
:103DA000002C42D065003B682D19033D59194B7812
:103DB000BB73002B00D1FB7300238B704B700B7017
:103DC00004E065003B682D19033D5919B2682A4B80
:103DD00094464246E3181B0163441A604A465A60FF
:103DE0000A9A9A600B9ADA6000238B704B700B7002
:103DF0007B7B9B46002B2BD022005946B8687B6802
:103E000098473A68002816D05B4658465B005B44EA
:103E10005519033BA870D118D35C002B00D06B70F0
:103E20005B460C707B73A34513D0F0BCBB46B24617
:103E3000A946A046F8BD5B465B005B44033BD31834
:103E40009C705119525D002A00D05A705B460B706D
:103E50007C7342464B46307D00F026FC051E06D0A2
:103E60005346002B03D12100306800F03FFE0E9B2B
:103E7000002BDAD01D70D8E7FFFFFF0FF0B5DE464C
:103E80004E46574645460023E0B58DB00A936B4B2E
:103E90008200D3580B90994600239B464B460793CC
:103EA00000F0A2FB079C06000F006268EFF310858C
:103EB00072B61368002BFCD022000794BFF35F8F0B
:103EC0002468637B9946002B67D092685C4B9046D0
:103ED0004B441B01984443461A685B681000190064
:103EE000801BB94100295FDD0B9800F0DDFB00234A
:103EF0000026984600279A46079C6368BFF35F8FA9
:103F00005A461A6085F310885346002B08D10028C2
:103F1000C6D10DB0F0BCBB46B246A946A046F0BD26
:103F20000A9B414618024B461843D0470890099116
:103F30006268EFF3108572B61368002BFCD007940B
:103F4000BFF35F8F0899099A002A48DB114303D019
:103F5000079B1B69002B5DD1079B1B68D97B002940
:103F600007D04A00521819688C4649466244033A01
:103F700051704A46DA734B46079A013BD168CA5CD6
:103F80000132CA545B46079A13615368BFF35F8FCF
:103F90005A461A6085F3108882E700230026984667
:103FA00000279A460020A7E7002901D100289BD1CD
:103FB0000021200000F01CFD43461E685F689B68DE
:103FC000079A9A464346DB689846D3684B44013BC0
:103FD0001B780A931B020343136100208CE72369BB
:103FE000002BB9D033003C005B1A94411A00230027
:103FF000A74219D89F421BD0594604910121039131
:104000004946029141460191514607980091FFF7B8
:10401000B5FEB7E700F0E8FA089A099B06000F0022
:1040200092197B419942E5D901225242D317E3E725
:104030009642E1D901225242D317DDE77CAF00203E
:10404000FFFFFF0FF8B557464E464546DE46E0B542
:10405000404D81468A466A68EFF3108872B613684D
:10406000002BFCD0BFF35F8F2E68B47B002C39D0BF
:10407000670033683F19033FDB195A78B273002A8F
:1040800000D1F273A968344A8C464946A21812013D
:104090006244116051465160304991600021D16005
:1040A000997059701970737B9B46002B35D0220094
:1040B0001900B068736898473268002820D05B46C2
:1040C00058465B005B44D719033BB870D118D35CEA
:1040D000002B00D07B705B460C7073735C451DD069
:1040E000002626E06B68BFF35F8F1C6088F31088A2
:1040F00001204042F0BCBB46B246A946A046F8BDEE
:104100005B465B005B44033BD3189C70D119D25DC6
:10411000002A00D05A705B460B7074734A465346AF
:10412000287D00F0C1FA061EDAD02100286800F0D0
:10413000DDFCEB681B19013B19786B68BFF35F8FDF
:1041400000221A6088F310880020002ED2D10802C5
:104150002043CFE778950020FFFFFF0F4D3D001073
:1041600010B5124C6368002B04D00A211048FFF7E9
:10417000CBFD10BD23000F4A1021206800F056FB34
:10418000032000F025FA032000F0FEFA03200A497C
:1041900000F044FAFFF7EAFA084B9C460323604418
:1041A0002375074B80006060DC60DEE778950020B7
:1041B00084B30020193D00107D3E00104000003403
:1041C0007CAF00200048704778950020F0B5574636
:1041D0004E464546DE46E0B585B0019310AB1B78F0
:1041E0000600039300239A46984600927268EFF304
:1041F000108972B61368002BFCD0BFF35F8F35684F
:10420000AC7B002C49D067002B683F19033FDB19BA
:104210005A78AA73002A00D1EA73B1684F4A8C46D3
:1042200000980199A21812016244106051600E9921
:1042300091600F99D16042469A705A701A706B7BE8
:104240009B46002B45D022001900A8686B68984750
:104250002A68002830D05B4658465B005B44D7197B
:10426000033BB870D118D35C002B00D07B705B4649
:104270000C706B735C452DD0F3681B19013B1878EB
:104280007368BFF35F8F42461A6089F31088534604
:10429000002B2CD10002204307E07368BFF35F8F2F
:1042A0001C6089F310880120404205B0F0BCBB4679
:1042B000B246A946A046F0BD5B465B005B44033BAB
:1042C000D3189C70D119D25D002A00D05A705B4679
:1042D0000B706C73307D009A019B00F0E5F982460B
:1042E0000028C9D02100306800F000FCC4E7039B1F
:1042F000002B30D00E9B00200F999847030004003C
:104300000D000B4327D000290DDA00980199020017
:104310000B00121BAB41994213D818D000920193A5
:10432000039B9A4662E700F05FF902000B00A418B5
:104330005D4100940195A94203D8F1D100998A42C8
:10434000EED901235B42DC1700930194E8E7009962
:104350009142E3D9F5E70020A7E7C046FFFFFF0F32
:10436000F0B504000D0006267642F717C64636194A
:104370006F4100B58F4213D810D000F035F93200EC
:104380003B00121A8B41002B14DC002B37D0290084
:10439000200000F033F980BCB846F0BD8642ECD96D
:1043A0000026002700F020F932003B00121A8B4152
:1043B000002BEADD30003900FFF744FE0028E6DB81
:1043C00000239846BC460F4A0F4F7B6A9C4504D891
:1043D000B96A8E42DBD99C45D9D11168EFF31080C0
:1043E00072B60B68002BFCD0BFF35F8F1368BFF36E
:1043F0005F8F4146196080F3108820BFE5E7002AEF
:10440000C5D0D7E784B300200040054070B5060052
:1044100000F0EAF8FA2204000D0000233000002129
:10442000920003F047FF001969418D4205D802D080
:10443000FFF796FF70BD8442FAD901204042C117B0
:10444000F6E7C046F8B5CE46474680B506000C00F4
:10445000FFF7F8FD00280CDC2D4B0020596A8C4238
:1044600003D89B6A0130B34245D3C0BCB946B046BD
:10447000F8BD20BF274D6A68EFF3108772B6136846
:10448000002BFCD0BFF35F8F2B68C1B29C465B7BD7
:104490008B4235D0FF2303405A0091466246126892
:1044A000994490464A464244033A9278002A1DD0E5
:1044B000EA68000A90464344013B1B78C0B283423D
:1044C00021D06B68BFF35F8F00221A6087F31088DA
:1044D0000F4A0020536A9C42C7D8926A0130B24208
:1044E000C3D2E01A421E9041C0B2BEE72B69984287
:1044F000E7D12A61E5E7601A431E9841C0B2B4E7EC
:10450000FF230340D4E7604600F0F0FAD9E7C04645
:104510000040054078950020F0B5D6464F46464607
:10452000C0B5EFF305833F22134018001038EFF3B6
:10453000108C72B6204D2A68002AFCD0BFF35F8F22
:104540000122110081401D4C884661631C491700FF
:104550000E788A463100C1400F400A4209D1BFF3AC
:104560005F8F2F608CF31088E0BCBA46B146A84636
:10457000F0BD14498200646A51588C420FD3124B2B
:10458000D25843469E4353461E70BFF35F8F0023AD
:104590002B608CF31088002AE6D09047E4E70B4AA2
:1045A0009B00904643441A681A60BFF35F8F002354
:1045B0002B608CF31088D7E7280100D0004005401D
:1045C000C5B3002090B30020E0A80020D03F0540F4
:1045D00010B50100024A0348FFF742F810BDC0467B
:1045E000F8590110BDB30020034B596A0A00986ABC
:1045F000596A8A42FAD1704700400540064A536A18
:104600009942FCD807D1044B02E05A6A914202D188
:104610009A6A8242F9D370470040054070B50400A1
:104620000D00EFF3108672B61A4A1368002BFCD007
:10463000BFF35F8F002D1BD02000FFF7E3F8164972
:1046400081420AD02000FFF7E5F801212000FFF7A2
:10465000A9F80123A340114A1360114BA400E550AF
:10466000BFF35F8F00220B4B1A6086F3108870BD7A
:104670000B4BA200D5500122A2400A4920000B7822
:1046800093430B700449FFF7E1F900212000FFF785
:1046900089F8E5E7280100D0194500103860054089
:1046A000E0A80020C5B30020F0B54F46D6464646E8
:1046B000C0B507002F4C616A0D00A66A616AA94265
:1046C000FAD18B4208D805D00120E0BCBA46B146E9
:1046D000A846F0BDB242F7D9EFF3108A72B6264869
:1046E00001680029FCD0BFF35F8F0125BD4023493D
:1046F000204C8846097889462943C9B28C464146F0
:1047000060460870391D1E48890065630A51B9006A
:104710000B50216A0020294219D0616A0800A66A5C
:10472000616A8142FAD18B4219D801D1B24216D8BE
:10473000CC451DD00F4B1F201D625D630123074038
:10474000BB40104A1E38136043464A461A70BFF3F6
:104750005F8F0022084B1A608AF31088B5E70020AB
:10476000BFF35F8F0022044B1A608AF31088ACE716
:104770000120ECE700400540280100D0C5B300202F
:1047800090B3002080E200E0EFF3108C72B60A498B
:104790000B68002BFCD0BFF35F8F01238340074AD7
:1047A0000748136202789A430270BFF35F8F0023B9
:1047B0000B608CF310887047280100D00040054042
:1047C000C5B3002070B5050014001600002915D0EF
:1047D0000C00002A12D080686B689847296800286E
:1047E0000ED073009B196200033B1219CB18033AD9
:1047F0009C7088188A5C002A15D10670200070BD54
:1048000063001B197200033B9219CB18033A9E7088
:1048100088188A5C002A02D104703400EEE75A70CE
:1048200004703400EAE75A700670E7E730B5836039
:104830000023CCB243730133047342608373C473A7
:104840000D000068012C06D9421C0133DBB2137045
:1048500003329C42F9D1FF2129404B005918002313
:1048600040180338437030BDF8B5CE4647460600C1
:104870000C0080B5002907D04D0003686D18033D7A
:104880005A195778002F04D12000C0BCB946B04651
:10489000F8BD7900C91903398846434459788946D7
:1048A00000215970517073683A0021008068984760
:1048B0003368002814D042469A18947059195B5DE9
:1048C000002B00D053700F70270049463000FFF7CF
:1048D000CBFF390002003000FFF774FF0400D3E77C
:1048E000424641465D19AF709A185B5C002B00D0C0
:1048F0006B701470E9E7C046F0B557464546DE4692
:104900004E46E0B50D006B0001685B19DF1E040028
:10491000C85D83B00192CA1900284CD043001B180F
:10492000033BCB185E78B446002E16D1019E002EB4
:104930003ED0E67B002E04D073009B19CB18033BBE
:104940005D70E57300282FD10023537003B0F0BCD5
:10495000BB46B246A946A046F0BD72006244033A87
:1049600089184A78904600224A7091465A70010090
:1049700032002000FFF726FF43468246002B07D077
:104980005B0021684344033BCB185A78002A16D1B8
:10499000424651462000FFF715FF2168019BCA19C6
:1049A000002BC6D10028CFD043001B18033BCB18E7
:1049B00000219970C8E7019B002BBAD1C4E75000D1
:1049C000801803380918487883464846487058705C
:1049D00041462000FFF7F6FE594680462000FFF7CB
:1049E00043FF414602002000FFF7ECFE8046CFE780
:1049F000F0B557464546DE464E46E0B583B00191D8
:104A0000457B04006B0000685B19DF1EC15DC219A5
:104A100000294ED04B005B18033BC3185E78B446A8
:104A2000002E18D1019E002E40D0E67B002E04D02F
:104A300073009B19C318033B5D70E573002931D1E6
:104A4000002328005370617303B0F0BCBB46B2462C
:104A5000A946A046F0BD72006244033A801842782D
:104A600090460022427091465A7020003200FFF7B3
:104A7000A9FE43468246002B07D05B0021684344D1
:104A8000033BCB185A78002A17D1424651462000E2
:104A9000FFF798FE019B01002068C219002BC4D1CA
:104AA0000029CDD04B005B18033BC3180020987041
:104AB000C6E7019B002BB8D1C2E75000801803382D
:104AC0000918487883464846487058704146200087
:104AD000FFF778FE594680462000FFF7C5FE4146A5
:104AE00002002000FFF76EFE8046CEE770B504009E
:104AF00000292CD0437B8B422ED0056848004018FB
:104B0000033828188278002A21D053009B18033BD1
:104B1000EA5CEE188A4202D11BE0002A08D053005A
:104B20009B18033BEB185A788A42F6D142785A70A8
:104B300000230122837043702000FFF7DDFE617BBC
:104B400002002000FFF73EFE6073012000E000201D
:104B500070BD43783370EBE701221900FFF7CCFEFC
:104B600060730120F4E7C04610B50400FEF7FEFDB7
:104B700001002000FFF7C8F8FF232371BFF35F8F08
:104B800010BDC04610B50400FEF7F0FD0100200086
:104B9000FFF7BAF8FF23A380BFF35F8F10BDC046B5
:104BA00010B504000120FEF7EDFD044B9C46604467
:104BB00080002060BFF35F8F10BDC046400000340E
:104BC0002C4B2D4A70B51A602C4A2D4B2D491A607A
:104BD00014008B689C43FBD12B4D2C4EB54208D260
:104BE000013E761BB60808CD984723000134B34236
:104BF000F9D100F097F8264A214B1A60214A9368B0
:104C0000DB43DB01DD09002BF9D14022214B224C93
:104C1000224E9A675A671A67DA66B44208D2236846
:104C20002000002B20D00834FFF7ACFFB442F6D3AD
:104C30001B4E1C4CC022A168300003F0D3FBA660C1
:104C4000FEF786FDFFF736F8FFF78AFA164C174E87
:104C5000B44208D2013E361BB60808CC98472B0058
:104C600001359E42F9D170BD0834FFF77DFFB44293
:104C7000D5D3DDE700E00040BFCDFBFEFE7F3C006A
:104C800000F0004000C0004068A0002078A0002094
:104C9000FFFFFF0100F0014060A0002068A000209D
:104CA0000000002000ED00E078A0002084A000209B
:104CB000094A03001068002805D00849C3188B4230
:104CC00007D81360704706480449C31810608B4228
:104CD000F7D901204042F5E7B4AA002000000420E3
:104CE000C8B3002000BEFDE70FB400B5084883B08C
:104CF00003F0E4FC049B002B07D005A918000191E8
:104D000001F042FD034803F0D9FC00BEFDE7C046B8
:104D10001C5A0110A055011010B50148FFF7E4FF1F
:104D20002C5A011030B50C2083B000F0B7F9FEF713
:104D300007FD00280ED0944B944A1A605A609A607E
:104D4000DA601A615A619A61DA611A62904A5A62AB
:104D500003B030BD8F4CA06700F036FA01228E4BB5
:104D60001A60636C012BFCD103228C4B1A60894AB8
:104D7000936B012BFCD101330121894A89480093AF
:104D8000043300F033F90523874A00930121874853
:104D900000F02CF9864B5A68FF2A02D88022520074
:104DA0005A608022784C7D4B21691201804D1A6037
:104DB000002905D0606901F073FD01300138FDD193
:104DC000E0217B4B02201A681140802252012A43C5
:104DD00011601968484003210140116004219A685C
:104DE0001142FCD08022802192012A4309011160E6
:104DF000802252005A606F4B23616F4B5968FF2924
:104E000000D85A600321644A6B4B116002399A68DA
:104E10001142FCD0E0201A681040802252011A434F
:104E20001060186848400321014002201160624967
:104E30008A681042FCD08022920113438022120122
:104E40001A6080225D4B52004A6063615C4B596876
:104E5000FF2900D85A6080225A4BE1691201584D4F
:104E60001A60002905D0606901F01AFD013001388F
:104E7000FDD1E02252490B681A4080235B012B438D
:104E80001A60802380229B012B4312011A6080222A
:104E90003E4B52004A60E3614B4B5968FF2900D8F2
:104EA0005A608022494B216A1201474D1A6000293D
:104EB00005D0606901F0F4FC01300138FDD1E02239
:104EC00041490B681A4080235B012B431A60802301
:104ED00080229B012B4312011A60802380225B00F9
:104EE0004B602A4BD2022362394B5968914200D25F
:104EF0005A608022374B616A1201354D1A600029D1
:104F000005D0606901F0CCFC01300138FDD1E02210
:104F10002F490B681A4080235B012B431A608023C2
:104F200080229B012B4312011A608023DB024B601D
:104F3000174B6362284B5A68FF2A02D8802252001E
:104F40005A608022254BA1691201234D1A60002965
:104F500005D0606901F0A4FC01300138FDD1E022E8
:104F60001D490B681A4080235B012B431A60802384
:104F700080229B012B4312011A6080235B004B604F
:104F80000E4BA361E4E6C04610AA0020006CDC02D0
:104F90001BB70000008000403CB0004030B0004033
:104FA000002F685900800240008C864700C00240F4
:104FB00030800040001BB7003C8000404059730720
:104FC0005480004054B000406080004060B0004019
:104FD0006C8000406CB000404880004048B0004009
:104FE000014B8000C058704710AA0020F0B5C6469B
:104FF000040000B50C2090461F000E0001F050FC8C
:105000004101091A8D01691AC90009188901404630
:1050100001F046FC069B3F041A0323681743002B4C
:1050200022DB1A4B1A4DE21853425A4180235B018E
:105030009C461203174B62441A60174B1A6011000A
:10504000AB689943FBD1C022231D92011A4321234F
:105050002660A06013602368002BFCDA0823E76059
:10506000136080BCB846F0BD3F2322681340B342B2
:10507000D7D1A3681B051B0D8342D2D1EE22E36872
:10508000D2021340BB42CCD1EBE7C0460040FDBF8B
:1050900000C0004000E0004000F000408023024AD1
:1050A0009B000343D362704700800540184B020009
:1050B000184810B5D8618020174BC0051860174CF0
:1050C0001748046000290AD0E021164BC904196072
:1050D000002A09D18022134B12061A6010BDE0216C
:1050E000C9041960002AF5D053019B1A9800802347
:1050F000801800015B04984200D30B4880220B4BC0
:10510000D2051860024B5860064B1A60E6E7C046AD
:10511000008005402131B76A00B00540FCFF010066
:105120000820014000A00540FFFFFF00C8AE00209E
:1051300010B5140080221B4BD2051A6000281AD02B
:105140000123194A1843194BDA61194A42401A627D
:10515000596298628022134BD2051A601549164A8B
:105160001160E022D2041A60002C07D18022134B78
:1051700012061A6010BD0D4BD861EBE763011B1BD3
:105180009A008023121912015B049A4200D30C4A40
:105190000C4B1A60054B5A608022084BD2051A60EE
:1051A000E8E7C04600B00540D3C007B00080054026
:1051B0002D3FF84FFCFF01000820014000A00540F2
:1051C000FFFFFF00C8AE0020AA23064A1B011360A0
:1051D000054B0649D360064B19605368002BFCDA77
:1051E0007047C04600400240C31F000000B0FA00F4
:1051F000006002407047C046F8B557464E464546E7
:10520000DE46E0B599460A9B07009A460D9B884604
:10521000934615000B9E9B0710D10C9B9E420DD20E
:105220009D1B14000E005D4422004B4601343100EA
:105230002020B847A542F7D1B0460B9E002E27D0BC
:10524000444675195346AA1B013E985D21004B4602
:10525000B847002EF6D123002C0098460D9B9B07E3
:105260000FD55B46E51A0C9BAB420AD946469846D9
:1052700022004B46310020200135B8470134A845B3
:10528000F6D82000F0BCBB46B246A946A046F8BD01
:105290002C00E3E7F0B54F464646D646C0B584B08D
:1052A00098460EAB1B78129F994694460D9C109B16
:1052B000119EBA0725D4002E4BD19C4200D3BFE0EB
:1052C00001223A4092461F2C00D9B8E00C9A551E94
:1052D000302201E0202C03D001342A55A342F9D812
:1052E0005246002A0DD0A6420BD9202C44D00C9A4D
:1052F000551E302201E0202C3ED001342A55B44204
:10530000F9D1FA064DD57A053FD4002C39D10F9B3F
:10531000102B00D179E00F9B022B00D18AE03023C3
:105320000C9A012413704B46002B3FD02D230C9A6E
:10533000135501340C9B6246009303974346029633
:105340000194FFF759FF04B0E0BCBA46B146A84645
:10535000F0BD012215003D40AA463A422FD04A46F0
:10536000002A02D10C323A4200D0013E9C42BAD20D
:105370001F2CABD9202E27D92024FA06DAD57A059E
:1053800003D4A3422DD0A6422BD00F9B102B32D09A
:10539000022B20D0202CCDD030220C9B1B191A7050
:1053A0000134202CC6D04B46002BBFD17B070DD437
:1053B0003B07BFD520230C9A13550134BAE79C4212
:1053C0009FD21F2C00D881E720249AE72B230C9A28
:1053D00013550134AEE7202CACD00C9B1B190134C3
:1053E0003AE0631E012C92D00F9A102A2AD0022A8A
:1053F0002FD01C00D0E7BB060ED4202C9AD00C9BDB
:105400001A19013478231370C4E7BB060DD478232E
:105410000C9A01241370BFE7202C00D18AE7582290
:105420000C9B1B191A700134B4E758230C9A012401
:105430001370B1E70C9A603301241370ACE7202499
:1054400000265EE7023CBA06E9D40C9A12191C0049
:10545000D8E70C9A9246534462221A709AE7C046E3
:1054600010B5002800D110BD03F0D8F8FBE7C04606
:105470000B0010B5002802D049681B68984710BD82
:10548000F0B5DE4657464E464546E0B59BB09B46D6
:10549000249B89469846259B0B900C924046424699
:1054A00019009A4601F0D5FC002800D0D8E001226E
:1054B00040465146774B524201F0C6FC002800D0CE
:1054C000CEE0012240465146734B524201F0A6FC09
:1054D000002800D0C4E0002200234046514601F0DD
:1054E0009DFC002800D0B9E1424653460A92099338
:1054F0008023289ADB001A400E92289A1A4201D182
:10550000062326930A9A099B1600134300D0C7E08E
:10551000289B002500261B0500D49BE100230D934A
:10552000269A0D9B9A4200DC9FE1D01A431E2693D7
:105530008023289ADB001A430023002728920D932A
:10554000279B0024BB4200D9DC1B0223289A1A4067
:105550000E92289A134203D07B427B415B421C404F
:105560000D9B002B07D00A9809992A00330001F0FF
:10557000ECFB0A900991002200234046514601F0BD
:105580004DFC002805D0802000068446099961441E
:105590000991289A414B0B9D13400493269B0A9A2C
:1055A0000293099B03940092019349465B462800AD
:1055B0000C9A00F08BF90400002F62D0289B220087
:1055C00098061F23C0179843631C984649465B46BC
:1055D0006530A8470D9B0025DA179C18DB0F9A460B
:1055E0005440013F01E0202D13D00AAA94461F2306
:1055F000200063440A2101355E1901F051F9303170
:10560000317020000A2101F04BF926000400092E18
:10561000E9D805230693002304930A3303935346E2
:1056200005970B9F029312AB009342465B46494697
:1056300038000195FFF72EFE0E9B0400002B20D0B2
:105640000C9BC51A279BAB421BD91E0022005B4650
:10565000494620200135B8470134AE42F6D810E063
:10566000289B42460493279B49460393269B0B980D
:1056700002935346009201935B460C9A00F026F980
:10568000040020001BB0F0BCBB46B246A946A046B1
:10569000F0BDC046FFFFEF7FFFFFEFFFFFF7FFFF0B
:1056A000734B099F9C467800400D604401F0E4FB79
:1056B000704A714B01F067FB704A714B01F03CFB83
:1056C0003B03704A1B0B1A4304000D00300011000D
:1056D0006D4B002201F027FB6C4A6D4B01F053FB30
:1056E00002000B002000290001F026FB01F0DCFB8A
:1056F0000D9001F0C1FB674A674B04000D0001F0FB
:1057000042FB0022654B01F017FB01F0CDFB644A20
:105710000600644B2000290001F035FB0400300036
:105720000D000F9601F0A8FB5F4A604B01F02BFBC8
:1057300002000B002000290001F0F5FA02000B0026
:1057400006000F0001F01FFB320004000D003B00BB
:105750003000390001F0F0FA002210901191544B02
:105760002000290001F0F1FA0022524B01F0E4FA86
:1057700002000B002000290001F0E7FA00224E4B46
:1057800001F0DAFA02000B002000290001F0DDFA36
:105790000D008021040032003B000020C90501F00B
:1057A000C2FA02000B002000290001F0C5FA020035
:1057B0000B001098119901F0C8FA0022314B01F04A
:1057C000BBFA3E4B0F9C9C4664440022230501F02B
:1057D000DAFA05000E0002000B000A98099901F0A0
:1057E0001DFB00280AD00D9B2800013B31000D93C2
:1057F0000022304B01F0A9FA05000E00C6270D99D2
:105800002B0063318F42BF4128997F42043709053D
:1058100000D495E6334300D182E6099C284A210052
:10582000284B0A9801F008FB002808D0002221002C
:10583000254B0A9801F0F2FA002800D070E6269B6A
:10584000002B00D17CE60E9B5A1E9341269AD31A58
:10585000269375E6002304270D9371E643460A93C9
:1058600080231B065344099342E6002326935FE6F8
:1058700001FCFFFFFB799F501344D33FB3C8608BFB
:10588000288AC63F0000F03F0000F83F61436F6385
:10589000A787D23F71A379094F930A400000E03FE8
:1058A0001655B5BBB16B0240EF39FAFE422EE63F0A
:1058B00000002C400000244000001840FF030000BE
:1058C0002D431CEBE2361A3F80842E41F0B54E4644
:1058D000DE4657464546E0B597B09946209E219F43
:1058E000229B8346984607910C923B003200300081
:1058F000390001F0AEFA002800D0A9E10122300001
:105900003900CA4B524201F089FA002800D0E1E088
:10591000012230003900C64B524201F095FA0028AE
:1059200000D0B7E0002230003900C24B01F08CFA01
:10593000002800D099E0002230003900BE4B01F071
:105940006DFA002800D090E00022002330003900DA
:1059500001F064FA002800D0B1E000230D93249BED
:105960005B0501D40623984608AB9C461722002409
:1059700030234146624404E0013413550139202CA0
:1059800001D00929F8D888463000390001F08CFA96
:105990004346DA00A94B05009B181A685B68089219
:1059A000099301F069FA02000B003000390001F0A0
:1059B000BAF9089A099B01F0E6F90A900B9101F0F7
:1059C00097FA824601F054FA02000B000A980B99EC
:1059D00001F0A9F900229A4B0A900B9101F034FAD8
:1059E000002800D1C0E001239C46E244504601F06B
:1059F0003FFA02000B000898099901F015FA0028F7
:105A000002D000239A4601354346002B6AD008ABEA
:105A100017269C4608956644554614E001235B42D0
:105A200043440A2128009A4600F03AFF01343031FD
:105A30003719397028000A2100F032FF092D00D8EB
:105A4000D0E0D0460500202CE8D10EAB98460323C9
:105A5000249A1340012B00D196E02023249A01932D
:105A60000392239A434602921EE0249B58460493D5
:105A7000239B00960197039343460C9A0293079940
:105A80004B46FFF7FDFC17B0F0BCBB46B246A9463B
:105A9000A046F0BD249B5B070ED40322694B2499DA
:105AA0000192039123990291009358464B460C9A18
:105AB0000799FFF7A1FBE6E70422634BEFE73B0002
:105AC00032000020002101F02EF9012306000F0012
:105AD0000D9344E7249B0393239B02930423019398
